{
  "contractName": "ReturnMANA",
  "abi": [
    {
      "constant": false,
      "inputs": [
        {
          "name": "_addresses",
          "type": "address[]"
        },
        {
          "name": "_amounts",
          "type": "uint256[]"
        }
      ],
      "name": "transferBackMANAMany",
      "outputs": [],
      "payable": false,
      "stateMutability": "nonpayable",
      "type": "function"
    },
    {
      "constant": true,
      "inputs": [],
      "name": "terraformReserve",
      "outputs": [
        {
          "name": "",
          "type": "address"
        }
      ],
      "payable": false,
      "stateMutability": "view",
      "type": "function"
    },
    {
      "constant": true,
      "inputs": [],
      "name": "returnVesting",
      "outputs": [
        {
          "name": "",
          "type": "address"
        }
      ],
      "payable": false,
      "stateMutability": "view",
      "type": "function"
    },
    {
      "constant": false,
      "inputs": [
        {
          "name": "_amount",
          "type": "uint256"
        }
      ],
      "name": "burnMana",
      "outputs": [],
      "payable": false,
      "stateMutability": "nonpayable",
      "type": "function"
    },
    {
      "constant": true,
      "inputs": [],
      "name": "owner",
      "outputs": [
        {
          "name": "",
          "type": "address"
        }
      ],
      "payable": false,
      "stateMutability": "view",
      "type": "function"
    },
    {
      "constant": false,
      "inputs": [
        {
          "name": "_address",
          "type": "address"
        },
        {
          "name": "_amount",
          "type": "uint256"
        }
      ],
      "name": "transferBackMANA",
      "outputs": [],
      "payable": false,
      "stateMutability": "nonpayable",
      "type": "function"
    },
    {
      "constant": false,
      "inputs": [
        {
          "name": "newOwner",
          "type": "address"
        }
      ],
      "name": "transferOwnership",
      "outputs": [],
      "payable": false,
      "stateMutability": "nonpayable",
      "type": "function"
    },
    {
      "constant": true,
      "inputs": [],
      "name": "token",
      "outputs": [
        {
          "name": "",
          "type": "address"
        }
      ],
      "payable": false,
      "stateMutability": "view",
      "type": "function"
    },
    {
      "inputs": [
        {
          "name": "_token",
          "type": "address"
        },
        {
          "name": "_terraformReserve",
          "type": "address"
        },
        {
          "name": "_returnVesting",
          "type": "address"
        }
      ],
      "payable": false,
      "stateMutability": "nonpayable",
      "type": "constructor"
    },
    {
      "anonymous": false,
      "inputs": [
        {
          "indexed": true,
          "name": "previousOwner",
          "type": "address"
        },
        {
          "indexed": true,
          "name": "newOwner",
          "type": "address"
        }
      ],
      "name": "OwnershipTransferred",
      "type": "event"
    }
  ],
  "bytecode": "0x6060604052341561000f57600080fd5b604051606080610d1883398101604052808051906020019091908051906020019091908051906020019091905050336000806101000a81548173ffffffffffffffffffffffffffffffffffffffff021916908373ffffffffffffffffffffffffffffffffffffffff16021790555082600260006101000a81548173ffffffffffffffffffffffffffffffffffffffff021916908373ffffffffffffffffffffffffffffffffffffffff16021790555080600160006101000a81548173ffffffffffffffffffffffffffffffffffffffff021916908373ffffffffffffffffffffffffffffffffffffffff16021790555081600360006101000a81548173ffffffffffffffffffffffffffffffffffffffff021916908373ffffffffffffffffffffffffffffffffffffffff160217905550505050610bc6806101526000396000f30060606040526004361061008e576000357c0100000000000000000000000000000000000000000000000000000000900463ffffffff1680630b1b62fa146100935780633cc3c3b51461012d57806341470877146101825780635c417695146101d75780638da5cb5b146101fa578063ac28240d1461024f578063f2fde38b14610291578063fc0c546a146102ca575b600080fd5b341561009e57600080fd5b61012b6004808035906020019082018035906020019080806020026020016040519081016040528093929190818152602001838360200280828437820191505050505050919080359060200190820180359060200190808060200260200160405190810160405280939291908181526020018383602002808284378201915050505050509190505061031f565b005b341561013857600080fd5b6101406103e4565b604051808273ffffffffffffffffffffffffffffffffffffffff1673ffffffffffffffffffffffffffffffffffffffff16815260200191505060405180910390f35b341561018d57600080fd5b61019561040a565b604051808273ffffffffffffffffffffffffffffffffffffffff1673ffffffffffffffffffffffffffffffffffffffff16815260200191505060405180910390f35b34156101e257600080fd5b6101f86004808035906020019091905050610430565b005b341561020557600080fd5b61020d61068a565b604051808273ffffffffffffffffffffffffffffffffffffffff1673ffffffffffffffffffffffffffffffffffffffff16815260200191505060405180910390f35b341561025a57600080fd5b61028f600480803573ffffffffffffffffffffffffffffffffffffffff169060200190919080359060200190919050506106af565b005b341561029c57600080fd5b6102c8600480803573ffffffffffffffffffffffffffffffffffffffff16906020019091905050610a1f565b005b34156102d557600080fd5b6102dd610b74565b604051808273ffffffffffffffffffffffffffffffffffffffff1673ffffffffffffffffffffffffffffffffffffffff16815260200191505060405180910390f35b60008060009054906101000a900473ffffffffffffffffffffffffffffffffffffffff1673ffffffffffffffffffffffffffffffffffffffff163373ffffffffffffffffffffffffffffffffffffffff1614151561037c57600080fd5b8151835114151561038c57600080fd5b600090505b82518110156103df576103d283828151811015156103ab57fe5b9060200190602002015183838151811015156103c357fe5b906020019060200201516106af565b8080600101915050610391565b505050565b600360009054906101000a900473ffffffffffffffffffffffffffffffffffffffff1681565b600160009054906101000a900473ffffffffffffffffffffffffffffffffffffffff1681565b6000809054906101000a900473ffffffffffffffffffffffffffffffffffffffff1673ffffffffffffffffffffffffffffffffffffffff163373ffffffffffffffffffffffffffffffffffffffff1614151561048b57600080fd5b60008111151561049a57600080fd5b600260009054906101000a900473ffffffffffffffffffffffffffffffffffffffff1673ffffffffffffffffffffffffffffffffffffffff166323b872dd600360009054906101000a900473ffffffffffffffffffffffffffffffffffffffff1630846000604051602001526040518463ffffffff167c0100000000000000000000000000000000000000000000000000000000028152600401808473ffffffffffffffffffffffffffffffffffffffff1673ffffffffffffffffffffffffffffffffffffffff1681526020018373ffffffffffffffffffffffffffffffffffffffff1673ffffffffffffffffffffffffffffffffffffffff1681526020018281526020019350505050602060405180830381600087803b15156105bd57600080fd5b6102c65a03f115156105ce57600080fd5b5050506040518051905015156105e357600080fd5b600260009054906101000a900473ffffffffffffffffffffffffffffffffffffffff1673ffffffffffffffffffffffffffffffffffffffff166342966c68826040518263ffffffff167c010000000000000000000000000000000000000000000000000000000002815260040180828152602001915050600060405180830381600087803b151561067357600080fd5b6102c65a03f1151561068457600080fd5b50505050565b6000809054906101000a900473ffffffffffffffffffffffffffffffffffffffff1681565b6000806000809054906101000a900473ffffffffffffffffffffffffffffffffffffffff1673ffffffffffffffffffffffffffffffffffffffff163373ffffffffffffffffffffffffffffffffffffffff1614151561070d57600080fd5b600073ffffffffffffffffffffffffffffffffffffffff168473ffffffffffffffffffffffffffffffffffffffff161415151561074957600080fd5b60008311151561075857600080fd5b839150600073ffffffffffffffffffffffffffffffffffffffff16600160009054906101000a900473ffffffffffffffffffffffffffffffffffffffff1673ffffffffffffffffffffffffffffffffffffffff161415156108d057600160009054906101000a900473ffffffffffffffffffffffffffffffffffffffff1673ffffffffffffffffffffffffffffffffffffffff16632421101f856000604051602001526040518263ffffffff167c0100000000000000000000000000000000000000000000000000000000028152600401808273ffffffffffffffffffffffffffffffffffffffff1673ffffffffffffffffffffffffffffffffffffffff168152602001915050602060405180830381600087803b151561087857600080fd5b6102c65a03f1151561088957600080fd5b505050604051805190509050600073ffffffffffffffffffffffffffffffffffffffff168173ffffffffffffffffffffffffffffffffffffffff161415156108cf578091505b5b600260009054906101000a900473ffffffffffffffffffffffffffffffffffffffff1673ffffffffffffffffffffffffffffffffffffffff166323b872dd600360009054906101000a900473ffffffffffffffffffffffffffffffffffffffff1684866000604051602001526040518463ffffffff167c0100000000000000000000000000000000000000000000000000000000028152600401808473ffffffffffffffffffffffffffffffffffffffff1673ffffffffffffffffffffffffffffffffffffffff1681526020018373ffffffffffffffffffffffffffffffffffffffff1673ffffffffffffffffffffffffffffffffffffffff1681526020018281526020019350505050602060405180830381600087803b15156109f357600080fd5b6102c65a03f11515610a0457600080fd5b505050604051805190501515610a1957600080fd5b50505050565b6000809054906101000a900473ffffffffffffffffffffffffffffffffffffffff1673ffffffffffffffffffffffffffffffffffffffff163373ffffffffffffffffffffffffffffffffffffffff16141515610a7a57600080fd5b600073ffffffffffffffffffffffffffffffffffffffff168173ffffffffffffffffffffffffffffffffffffffff1614151515610ab657600080fd5b8073ffffffffffffffffffffffffffffffffffffffff166000809054906101000a900473ffffffffffffffffffffffffffffffffffffffff1673ffffffffffffffffffffffffffffffffffffffff167f8be0079c531659141344cd1fd0a4f28419497f9722a3daafe3b4186f6b6457e060405160405180910390a3806000806101000a81548173ffffffffffffffffffffffffffffffffffffffff021916908373ffffffffffffffffffffffffffffffffffffffff16021790555050565b600260009054906101000a900473ffffffffffffffffffffffffffffffffffffffff16815600a165627a7a72305820e12b4e20bee8e73db6700664cdf81dc0b1a2db20aac905e9b7db198152e2aed00029",
  "source": "pragma solidity ^0.4.15;\n\nimport 'zeppelin-solidity/contracts/ownership/Ownable.sol';\nimport './ReturnVestingRegistry.sol';\n\ncontract BurnableToken {\n  function transferFrom(address, address, uint) public returns (bool);\n  function burn(uint) public;\n}\n\n\n/**\n * @title LANDTerraformSale\n * @dev A contract for managing the terraform event, an auctioned sale of LAND\n */\ncontract ReturnMANA is Ownable {\n\n  // contract for mapping return address of vested accounts\n  ReturnVestingRegistry public returnVesting;\n\n  // MANA Token\n  BurnableToken public token;\n\n  // address of the contract that holds the reserve of staked MANA\n  address public terraformReserve;\n\n  /**\n    * @dev Constructor\n    * @param _token MANA token contract address\n    * @param _terraformReserve address of the contract that holds the staked funds for the auction\n    * @param _returnVesting address of the contract for vested account mapping\n    */\n  function ReturnMANA(address _token, address _terraformReserve, address _returnVesting) public {\n    token = BurnableToken(_token);\n    returnVesting = ReturnVestingRegistry(_returnVesting);\n    terraformReserve = _terraformReserve;\n  }\n\n  /**\n   * @dev Burn MANA\n   * @param _amount Amount of MANA to burn from terraform\n   */\n  function burnMana(uint256 _amount) onlyOwner public {\n    require(_amount > 0);\n    require(token.transferFrom(terraformReserve, this, _amount));\n    token.burn(_amount);\n  }\n\n  /**\n   * @dev Transfer back remaining MANA to account\n   * @param _address Address of the account to return MANA to\n   * @param _amount Amount of MANA to return\n   */\n  function transferBackMANA(address _address, uint256 _amount) onlyOwner public {\n    require(_address != address(0));\n    require(_amount > 0);\n\n    address returnAddress = _address;\n\n    // Use vesting return address if present\n    if (returnVesting != address(0)) {\n      address mappedAddress = returnVesting.returnAddress(_address);\n      if (mappedAddress != address(0)) {\n        returnAddress = mappedAddress;\n      }\n    }\n\n    // Funds are always transferred from reserve\n    require(token.transferFrom(terraformReserve, returnAddress, _amount));\n  }\n\n  /**\n   * @dev Transfer back remaining MANA to multiple accounts\n   * @param _addresses Addresses of the accounts to return MANA to\n   * @param _amounts Amounts of MANA to return\n   */\n  function transferBackMANAMany(address[] _addresses, uint256[] _amounts) onlyOwner public {\n    require(_addresses.length == _amounts.length);\n\n    for (uint256 i = 0; i < _addresses.length; i++) {\n      transferBackMANA(_addresses[i], _amounts[i]);\n    }\n  }\n}\n",
  "sourcePath": "/Users/eordano/Decentraland/land/contracts/ReturnMANA.sol",
  "compiler": {
    "name": "solc",
    "version": "0.4.18+commit.9cf6e910.Emscripten.clang"
  },
  "schemaVersion": "1.0.1",
  "updatedAt": "2018-01-05T05:01:23.988Z"
}